:1000000000000120750300005D0300005F03000095
:1000100061030000630300006503000000000000AE
:100020000000000000000000000000006703000066
:1000300069030000000000006B030000DD70000099
:100040006F0300006F030000590B00007D2D0000BE
:10005000E14800006F030000493700006F03000013
:10006000314E00006F0300006F0300006F030000BB
:100070006F0300006F0300006F0300006F030000B8
:100080006F0300006F0300006F0300006F030000A8
:100090006F0300006F0300006F0300006F03000098
:1000A0006F0300006F0300006F0300006F03000088
:1000B0006F0300006F03000000000000000000005C
:1000C0006F0300006F0300006F0300006F03000068
:1000D0006F0300006F0300006F03000000000000CA
:1000E0000000000000000000000000000000000010
:1000F0000000000000000000000000000000000000
:1001000000000000000000000000000000000000EF
:1001100000000000000000000000000000000000DF
:1001200000000000000000000000000000000000CF
:1001300000000000000000000000000000000000BF
:1001400000000000000000000000000000000000AF
:10015000000000000000000000000000000000009F
:10016000000000000000000000000000000000008F
:10017000000000000000000000000000000000007F
:10018000000000000000000000000000000000006F
:10019000000000000000000000000000000000005F
:1001A000000000000000000000000000000000004F
:1001B000000000000000000000000000000000003F
:1001C000000000000000000000000000000000002F
:1001D000000000000000000000000000000000001F
:1001E000000000000000000000000000000000000F
:1001F00000000000000000000000000000000000FF
:10020000354936480A1A02D0072291438D463449AF
:1002100034480A1A06D00722914381F30988022242
:1002200082F3148830483149314A00F044F83148AB
:100230003149324A00F03FF831483249324A00F041
:100240003AF832483249334A00F035F832483349F7
:10025000334A00F030F833483349344A00F02BF881
:1002600033483449344A00F026F8344834490022EF
:1002700000F02CF833483449002200F027F83348C6
:100280003349091A082902DB002202604160314A21
:1002900090471F481F49884205D00268043003B4C4
:1002A000904703BCF7E700208646EC46002000217B
:1002B000294A9047FEE7884207D0521A05D00378B2
:1002C00001300B700131013AF9D17047884202D0F8
:1002D00002700130FAE770470000012000F00020B2
:1002E0000000012000000120948A0000000000208E
:1002F0001C000020D0030000D00300008C87000009
:10030000948A000000000020000000208C8700007C
:100310008C8700008C8700008C8700008C87000091
:100320008C8700008C8700008C870000938A000077
:10033000B08A00001C0000201C0000201C000020CF
:100340002C0B00202C0B00202C0B00202C0B002051
:100350002C1300209D030000C1500000FEE7FEE7C3
:10036000FEE7FEE7FEE7FEE7FEE7FEE7FEE7FEE765
:1003700000F002B8FFF7FCBF0F484FF007018843B9
:1003800085460E4880470E48016841F470010160BF
:10039000BFF34F8FBFF36F8FFFF732BF09480A4992
:1003A0000A4A884207D0521A05D0037801300B70F0
:1003B0000131013AF9D170470000012005790000B0
:1003C00088ED00E08C870000000000200000002085
:1003D000FEE782B0019000BF02B0704700B587B061
:1003E00001900023039300230493019B059303AB27
:1003F0001A46002144F2010000F01AF800BF07B0CD
:100400005DF804FBBFF34F8F00BF074BDB6803F4BD
:10041000E0620549054B1343CB60BFF34F8F00BF2C
:1004200000BF00BFFCE700BF00ED00E00400FA05DC
:1004300000B585B003900291019272B600BF064BE1
:100440001B6803F00103002B00D000BEFFF7DAFFAA
:1004500000BF05B05DF804FBF0ED00E084B0019052
:10046000019B9B680393019BDA68039BD31A184690
:1004700004B0704782B001900B468DF80330019BA9
:100480001A68019BDB68019989880B4013449DF829
:1004900003201A70019BDB685A1C019BDA6000BFC5
:1004A00002B0704784B003900B460192ADF80A3059
:1004B000039B1A68039B9968BDF80A300B440399A3
:1004C00089880B4013441A78019B1A7000BF04B04E
:1004D000704700B583B001900091009A0021019807
:1004E000FFF7E0FF019B9B685A1C019B9A6000BFCD
:1004F00003B05DF804FB84B0039002911346ADF89D
:100500000630029B002B01D10E231DE0BDF8063002
:10051000002B07D0BDF806305A1EBDF80630134038
:10052000002B01D009230FE0039B029A1A60BDF84B
:100530000630013B9AB2039B9A80039B00229A608B
:10054000039B0022DA600023184604B0704700B510
:1005500083B001900B468DF803300198FFF77EFFC2
:100560000246019B9B889A4207D89DF803301946A2
:100570000198FFF77FFF002300E00423184603B033
:100580005DF804FB00B583B0019000910198FFF77E
:1005900065FF0346002B05D000990198FFF799FFEE
:1005A000002300E00523184603B05DF804FB0000BB
:1005B00072B600BF034B1B680133024A136000BFD1
:1005C000704700BF1C000020064B1B68013B054A1A
:1005D0001360044B1B68002B01D162B600BF00BF43
:1005E000704700BF1C00002000B583B00190FFF7EA
:1005F000DFFF00BF03B05DF804FB00B583B0034626
:100600008DF80730FFF7E0FF00BF03B05DF804FB93
:1006100000B583B001900091019BDBB2184600F059
:10062000BBF9019B184603B05DF804FB00B587B029
:100630000390029113468DF8073000230593039B26
:100640001B781A46114B9B5C002B09D0039B04338B
:100650009DF807200299184601F0A8FB05900FE0CD
:10066000039B1B781A46094B9B5C002B08D1039B0C
:100670000C339DF807200299184600F0C5FD05903F
:10068000059B184607B05DF804FB00BF5C00002026
:1006900000B585B0019000238DF80F30019B1B78C9
:1006A0001A46114B9B5C002B08D0019B0433184663
:1006B00001F012FC03468DF80F300EE0019B1B7811
:1006C0001A46094B9B5C002B07D1019B0C33184643
:1006D00000F006FE03468DF80F309DF80F301846E7
:1006E00005B05DF804FB00BF5C00002000B587B0DA
:1006F0000390029113468DF8073000230593039B66
:100700001B781A46114B9B5C002B09D0039B0433CA
:100710009DF807200299184601F0F6FB05900FE0BE
:10072000039B1B781A46094B9B5C002B08D1039B4B
:100730000C339DF807200299184600F029FE059019
:10074000059B184607B05DF804FB00BF5C00002065
:1007500084B00190019B9B680393019BDA68039B23
:10076000D31A184604B0704700B587B001900091C5
:10077000019B1B78022B45D0022B6ADC002B52D048
:10078000012B66D1019B1B7A002B05D10122334935
:100790003348FFF7ABFF5DE0019B5B681B781946B0
:1007A0003048FFF7D4FE0590059B002B0AD00123AB
:1007B0008DF80C30059B04932B4B1B6803AA104645
:1007C00098470DE02748FFF7C3FF0346002B07D0EB
:1007D00000238DF80C30244B1B6803AA1046984761
:1007E0002048FFF7B5FF03461E4A9288934205D87A
:1007F00001221A491A48FFF779FF2BE01B4B01220F
:100800001A7027E002238DF80C30019BDB680493FB
:10081000012212491248FFF769FF134B1B6803AA14
:100820001046984716E012491248FFF7ABFE034600
:10083000002B05D101220E490948FFF7F7FE09E018
:1008400003238DF80C30084B1B6803AA1046984709
:1008500000E000BF00BF07B05DF804FB28000020E7
:10086000000000202C000020200000202900002093
:10087000240000203C00002030B591B0039002918C
:1008800001928DF803303C4A019B1360029B002BC0
:1008900001D107236DE0029B1968029B5B689BB244
:1008A0001A463648FFF727FE0F900F9B0E930E9BBC
:1008B000002B01D00E9B5CE0029B9968029BDB68D9
:1008C0009BB21A462E48FFF716FE0F900F9B0D9312
:1008D0000D9B002B01D00D9B4BE02A4B04AC1D4619
:1008E0000FCD0FC495E80F0084E80F00039B5B69F0
:1008F0000A93039B1B7C002B14BF01230023DBB254
:100900008DF824309DF803308DF82C30039B5B7CF0
:10091000002B01D00E2300E000238DF82530039B2F
:10092000DB680693039B9B680793039B1B680593F7
:10093000039B5B68049304AB134A1946134800F009
:10094000ABF80F900F9B0C930C9B002B01D00C9BD2
:100950000FE00F4B00221A70039B1B68B3F1FF3F9F
:1009600006D001220B490948FFF7C0FE034600E00C
:100970000023184611B030BD200000202C000020BC
:100980003C0000208C870000690700000000002068
:10099000290000202800002000B585B003468DF80E
:1009A00007309DF8073019461048FFF7D0FD039037
:1009B000039B002B15D10E48FFF76AFE034683F018
:1009C0000103DBB2002B0CD00A490848FFF7DAFD1F
:1009D0000346002B05D1012206490548FFF726FEF4
:1009E0000390039B184605B05DF804FB3C00002013
:1009F000000000202400002000B589B00190009183
:100A0000009B0793019B1B788DF80C30019B5B6862
:100A10000493019B9B68DBB28DF81430019BDB686B
:100A20000693074A079B52F823300649079A51F864
:100A3000221003AA1046984700BF09B05DF804FBD6
:100A40004C0000205400002000B589B001900091B6
:100A5000009B0793019B1B788DF80C30019B5B6812
:100A60000493019B9B68DBB28DF81430019BDB681B
:100A70000693074A079B52F823300649079A51F814
:100A8000221003AA1046984700BF09B05DF804FB86
:100A90004C0000205400002030B58FB0039002912C
:100AA0000192039B1B780C9326490C9B019A41F8F9
:100AB0002320029B1A6924490C9B41F82320029BA6
:100AC0005B7F1946214A0C9B13440A461A70029B0D
:100AD00004AC1D460FCD0FC495E80F0084E80F004D
:100AE0000C9B089300230D93039B1B781A46174B0E
:100AF0009B5C002B0DD0039B181D019B002B01D08C
:100B0000134A00E0002204AB194601F0F1F80D9001
:100B100014E0039B1B781A460C4B9B5C002B0DD1F9
:100B2000039B03F10C00019B002B01D0094A00E05C
:100B3000002204AB194600F0BDFA0D900D9B18463B
:100B40000FB030BD4C000020540000205C0000209D
:100B5000F9090000490A000008B5024B1B689847D4
:100B600000BF08BD6000002082B00190019B044AD4
:100B7000934201D1034B00E00023184602B07047B6
:100B8000002000406000002000B587B00190009177
:100B90000198FFF7E9FF0490049B002B1ED000236F
:100BA0008DF817300020FFF71FFD049B1B79002BE9
:100BB00003D001238DF8173005E0049B009A1A60DA
:100BC000049B01221A710020FFF717FD9DF81730D2
:100BD000002B03D011230393039B02E00023039314
:100BE000039B184607B05DF804FB00B585B0019083
:100BF0000198FFF7B9FF0390039B002B05D0039BDF
:100C000000221A60039B00221A7100BF05B05DF834
:100C100004FB000082B003468DF807309DF80730D2
:100C200003F01F0205499DF907305B09012000FA16
:100C300002F241F8232000BF02B0704700E100E05B
:100C400082B0034600918DF807309DF90730002BE4
:100C50000CDA009BDAB20C499DF8073003F00F0361
:100C6000043B5201D2B20B441A7609E0009BDAB27F
:100C700006499DF907305201D2B20B4483F8002394
:100C800000BF02B0704700BF00ED00E000E100E0EF
:100C900082B00190019B1B0B5BB2184602B07047FB
:100CA00000B583B003460A468DF8073013468DF829
:100CB00006309DF806209DF9073011461846FFF7CB
:100CC000BFFF00BF03B05DF804FB00B583B003466F
:100CD0008DF807309DF907301846FFF79BFF00BFDE
:100CE00003B05DF804FB84B001900B46ADF8023010
:100CF000BDF80230019A134400221A60BDF8023098
:100D0000019A13441B680393039B00BF04B0704710
:100D100082B001900B46ADF80230BDF80230019A66
:100D200013441B68002B14BF01230023DBB21846B9
:100D300002B0704782B001900091019B009AC3F805
:100D4000042300BF02B0704782B001900091019B64
:100D5000D3F80423009B1340002B14BF012300236E
:100D6000DBB2184602B0704782B001900091019B3F
:100D7000009AC3F8082300BF02B0704784B0019006
:100D8000019BD3F880340393019B039AC3F880241A
:100D9000039B184604B0704782B00190019B042267
:100DA000C3F8002500BF02B0704784B003900291E1
:100DB0000192039B019AC3F81425039B029AC3F87E
:100DC0000C2500BF04B0704784B0039002910192DB
:100DD000039B029AC3F80825039B019AC3F81025C8
:100DE00000BF04B0704782B00190019BD3F8183562
:100DF000DBB2184602B0704782B001900B468DF806
:100E000003309DF80320019BC3F81C2500BF02B0EE
:100E1000704782B001900B468DF803309DF8033087
:100E2000019A134401221A6000BF02B0704782B0D9
:100E300001900B468DF8033013468DF802309DF873
:100E400003209DF802301343DBB21A46019BC3F81E
:100E50006C2500BF02B0704782B001900091019BE9
:100E6000009AC3F8242500BF02B0704782B00190F9
:100E7000019B1B681F2B02D84FF0A04306E0019B8B
:100E80001B6803F01F02019B1A60024B184602B058
:100E9000704700BF0003005000B585B001900846C0
:100EA00011461A4603468DF803300B468DF8023082
:100EB00013468DF8013001AB1846FFF7D7FF0390BA
:100EC0009DF803209DF802305B001A439DF8013025
:100ED0009B001A439DF818301B0242EA03019DF85B
:100EE0001C301B04019A1943039B02F5E07243F87E
:100EF000221000BF05B05DF804FB00B585B003907B
:100F00000023019300230093002301220121039871
:100F1000FFF7C2FF00BF05B05DF804FB00B585B068
:100F200003900B468DF80B309DF80B300022019298
:100F300000220092002200210398FFF7ADFF00BFBE
:100F400005B05DF804FB00B585B0019001AB184613
:100F5000FFF78CFF0390019B012202FA03F319466D
:100F6000039800F004F800BF05B05DF804FB82B000
:100F700001900091019B009AC3F8082500BF02B0C0
:100F8000704700B583B001900091009B1B68B3F1DE
:100F9000FF3F09D0009B1B681846FFF7D4FF009B5A
:100FA0001B681846FFF7A9FF009B5B68B3F1FF3F82
:100FB00005D0009B5B6800211846FFF7AFFF019B3F
:100FC0001A68009B9B6919461046FFF745FF019B75
:100FD0001868009B597D009B1B7D1A46FFF727FF71
:100FE000019B1868009B1968009B5B681A46FFF715
:100FF000DCFE009B1B7D012B22D1009B9B68B3F183
:10100000FF3F05D0009B9B6800211846FFF786FF35
:10101000009BDB68B3F1FF3F09D0009BDB681846FB
:10102000FFF791FF009BDB681846FFF766FF019B07
:101030001868009BD968009B9B681A46FFF7C4FE9E
:1010400000BF03B05DF804FB00B583B001900B4610
:101050008DF80330019B1B684FF48E711846FFF723
:1010600042FE019B1B684FF4A2711846FFF73BFE3E
:10107000019B1B680E491846FFF75CFE019B1B682D
:101080001846FFF705FE03461A469DF80330194639
:101090001046FFF705FE019B1B681846FFF7F8FD99
:1010A00003461846FFF711FE00BF03B05DF804FBCE
:1010B0008000020000B587B0039002910192039B6B
:1010C0001B791A462C2302FB03F3284A1344059389
:1010D00000230493059B93F82A30002B03D00823A8
:1010E0000493049B3EE0039B1A68039B1B791946FB
:1010F0001F4B53F8213019461046FFF745FD0346B4
:10110000002B03D011230493049B2BE00299039836
:10111000FFF737FF059B019A5A60029B1A69059BEE
:101120001A60059B5B68002B05D0029B1B7F19464C
:101130000398FFF789FF039B1B681846FFF72CFEF7
:10114000059B00229A61059B0022DA61059B002223
:1011500083F82920059B00225A61059B012283F810
:101160002A20049B184607B05DF804FB68000020A5
:10117000AC87000000B585B0019000914FF48E71EE
:101180000198FFF7B0FD009B9A68009B1B6A13440F
:101190001B788DF80F30009B1B6A5A1C009B1A624B
:1011A0009DF80F3019460198FFF726FE00BF05B0E5
:1011B0005DF804FB00B585B001900091009B5B6970
:1011C000039316E0009B93F82830DBB2002B01D08C
:1011D000002314E04FF48E710198FFF799FD034648
:1011E00083F00103DBB2002BECD100990198FFF7EB
:1011F000C1FF009B1B6A039A9A42EBD80123184651
:1012000005B05DF804FB000000B587B003900291C3
:101210000192039B1B791A462C2302FB03F32F4AEE
:1012200013440493039800F05BF80346002B03D0AB
:1012300011230593059B4CE0049B019A5A61049B82
:10124000029A9A60049B00221A62049B002283F88F
:10125000282000230593039B1B684FF48E711846CA
:10126000FFF741FD039B1B6808211846FFF7D1FDDE
:10127000039B1B6804991846FFF77CFF049B5B687F
:10128000002B25D1039B1B6804991846FFF792FF9A
:10129000034683F00103DBB2002B02D00F2305933A
:1012A00013E000BF039B1B684FF48E711846FFF7D5
:1012B0002FFD034683F00103DBB2002BF2D1039B29
:1012C0001B680C211846FFF7A4FD049B00225A61FD
:1012D000059B184607B05DF804FB00BF68000020BE
:1012E00082B00190019B1B791946074A2C2301FB10
:1012F00003F3134414331B68002B14BF0123002392
:10130000DBB2184602B070476800002000B583B019
:101310000190019B1B684FF492711846FFF7E3FCA4
:10132000019B1B684FF484711846FFF7DCFC019B9E
:101330001B6800211846FFF76CFD00BF03B05DF885
:1013400004FB10B582B001900091009B9B69002BBB
:1013500008D14FF484710198FFF7C5FC0198FFF79D
:1013600042FD13E04FF484710198FFF7BCFC009B31
:10137000DA68009B5B6AD4180198FFF734FD0346D6
:101380002370009B5B6A5A1C009B5A6202B010BD1E
:1013900000B589B0039002910192039B1B791A4614
:1013A0002C2302FB03F36E4A1344069300238DF8AB
:1013B0001F30069B5B68002B06D0039B1B684FF415
:1013C00001711846FFF7D0FC069B9B69002B15D0D6
:1013D000069BDB69002B0ED0069B5B68002B06D0BA
:1013E000039B1B684FF401711846FFF7A3FC112300
:1013F0000593059BB0E001238DF81F309DF81F3049
:1014000083F00103DBB2002B0CD0069B019A9A619A
:10141000069B029ADA60069B00225A62069B002213
:10142000DA6105E0069B029A1A61069B019ADA616D
:10143000069B93F8293083F00103DBB2002B09D01F
:101440009DF81F3083F00103DBB2002B02D003981C
:10145000FFF75CFF069B5B68002B73D1039B1B6847
:101460004FF4A2711846FFF73EFC039B1B684FF434
:1014700092711846FFF74CFC03468DF81330039B1E
:101480001B684FF484711846FFF742FC03468DF841
:101490001230039B1B684FF4A2711846FFF738FC0B
:1014A00003468DF811309DF8123083F00103DBB252
:1014B000002B0DD09DF8113083F00103DBB2002B1F
:1014C00006D09DF8133083F00103DBB2002BCCD1A2
:1014D0009DF81330002B0FD19DF81130002B0BD14C
:1014E000039B1B6806991846FFF72BFF069B9A691A
:1014F000069B5B6A9A42B8D8069B00229A619DF8C7
:101500001330002B03D003230593059B24E09DF8A3
:101510001130002B03D00F230593059B1CE0069B85
:1015200093F82930002B06D0039B1B680021184636
:10153000FFF76FFC0DE0039B1B6804211846FFF7C3
:1015400068FC06E0039B1B684FF401711846FFF727
:10155000F1FB00230593059B184609B05DF804FBD9
:101560006800002000B589B0039002910192012328
:101570008DF81030029B0693019B0593039B5B68DB
:10158000039A116804AA1046984700BF09B05DF895
:1015900004FB00B587B00190009100238DF808305E
:1015A000009B0493019B9B680393019B00225A615B
:1015B000019B5B68019A116802AA1046984700BF18
:1015C00007B05DF804FB00B58BB0019000914FF4BB
:1015D00000710198FFF7B8FB0346002B39D04FF498
:1015E00092710198FFF794FB0346002B31D04FF422
:1015F00092710198FFF777FB4FF401710198FFF7A3
:10160000B3FB009B93F8293083F00103DBB2002B7E
:1016100003D004210198FFF7FCFB02238DF80C3066
:101620000198FFF7ABFB03460693009B9B6905936C
:10163000009BDB680493009B00229A61009B0022C0
:10164000DA61009B5B68009A116803AA104698470C
:1016500052E004210198FFF777FB0346002B4BD0A3
:101660004FF484710198FFF753FB0346002B43D0DE
:1016700000990198FFF765FE009B9A69009B5B6AE1
:101680009A4239D1009BDB69002B19D0009BDB68A3
:101690000993009B5B6A0893009BDA69009B9A613F
:1016A000009B1A69009BDA60009B0022DA61009BB4
:1016B00000225A62099A08990098FFF753FF1BE02D
:1016C000009B93F8293083F00103DBB2002B03D099
:1016D00004210198FFF79DFB4FF401710198FFF77A
:1016E00043FB009B00229A61009B596A009BDB68C8
:1016F0001A460098FFF736FF4FF48E710198FFF7F6
:1017000007FB0346002B24D0009B5B690793009BDB
:101710001B6A079A9A420DD9009B93F82830DBB2D6
:1017200083F00103DBB2002B04D000990198FFF78E
:1017300021FD0EE04FF48E710198FFF7D4FA009B63
:101740005B69002B05D0009B5B6919460098FFF789
:1017500020FF4FF4A2710198FFF7DAFA0346002B3D
:101760001CD04FF4A2710198FFF7BDFA009B93F8CB
:101770002930002B03D000210198FFF74AFB009B82
:101780009B69002B0AD0009B00229A61009B596A3A
:10179000009BDB681A460098FFF7E4FE00BF0BB021
:1017A0005DF804FB08B503490348FFF70CFF00BFD1
:1017B00008BD00BF680000200020004082B0034642
:1017C0008DF807309DF8073003F01F0205499DF999
:1017D00007305B09012000FA02F241F8232000BF24
:1017E00002B0704700E100E082B0034600918DF83E
:1017F00007309DF90730002B0CDA009BDAB20C4958
:101800009DF8073003F00F03043B5201D2B20B44A2
:101810001A7609E0009BDAB206499DF907305201B9
:10182000D2B20B4483F8002300BF02B0704700BF60
:1018300000ED00E000E100E082B00190019B03F0C8
:101840006043B3F1005F0CBF01230023DBB21846F5
:1018500002B0704782B00190019B1B0B5BB218462F
:1018600002B0704700B583B003460A468DF80730D2
:1018700013468DF806309DF806209DF90730114675
:101880001846FFF7B1FF00BF03B05DF804FB00B5D9
:1018900083B003468DF807309DF907301846FFF7EF
:1018A0008DFF00BF03B05DF804FB84B001900B46D0
:1018B000ADF80230BDF80230019A134400221A60DC
:1018C000BDF80230019A13441B680393039B00BFC9
:1018D00004B0704782B001900B46ADF80230BDF8FD
:1018E0000230019A13441B68002B14BF012300230C
:1018F000DBB2184602B0704782B001900091019BA4
:10190000D3F80022009B1A43019BC3F8002200BFBA
:1019100002B0704782B001900091019BD3F8002281
:10192000009BDB431A40019BC3F8002200BF02B0BA
:10193000704782B001900091019B009AC3F8042384
:1019400000BF02B0704782B001900091019B009AE5
:10195000C3F8082300BF02B0704784B00190019B18
:10196000D3F880340393019B039AC3F88024039B2C
:10197000184604B0704782B00190019B0822C3F85A
:10198000002500BF02B0704784B00390029101921D
:10199000039B029AC3F80C25039B019AC3F81425F4
:1019A00000BF04B0704784B0039002910192039B82
:1019B000029AC3F80825039B019AC3F8102500BFBB
:1019C00004B0704782B001900B468DF803309DF84B
:1019D0000330019A134401221A6000BF02B070471D
:1019E00082B001900B468DF8033013468DF802301B
:1019F0009DF803209DF802301343DBB21A46019B89
:101A0000C3F86C2500BF02B0704782B0019000910E
:101A1000019B009AC3F8242500BF02B0704784B030
:101A2000039002910192029A039BC3F84425039B01
:101A3000019AC3F8482500BF04B0704782B00190F6
:101A4000019BD3F84C35184602B0704784B0039020
:101A500002910192029A039BC3F83425039B019AD9
:101A6000C3F8382500BF04B0704782B00190019BD5
:101A7000D3F83C35184602B07047000082B00190A0
:101A8000019B1B681F2B02D84FF0A04306E0019B6F
:101A90001B6803F01F02019B1A60024B184602B03C
:101AA000704700BF0003005000B585B001900846A4
:101AB00011461A4603468DF803300B468DF8023066
:101AC00013468DF8013001AB1846FFF7D7FF03909E
:101AD0009DF803209DF802305B001A439DF8013009
:101AE0009B001A439DF818301B0242EA03019DF83F
:101AF0001C301B04019A1943039B02F5E07243F862
:101B0000221000BF05B05DF804FB00B585B003905E
:101B10000023019300230093002301220121039855
:101B2000FFF7C2FF00BF05B05DF804FB00B585B04C
:101B300003900B468DF80B309DF80B30002201927C
:101B400000220092002200210398FFF7ADFF00BFA2
:101B500005B05DF804FB00B585B0019001AB1846F7
:101B6000FFF78CFF0390019B012202FA03F3194651
:101B7000039800F004F800BF05B05DF804FB82B0E4
:101B800001900091019B009AC3F8082500BF02B0A4
:101B9000704700B583B001900091009B1B68B3F1C2
:101BA000FF3F09D0009B1B681846FFF7D4FF009B3E
:101BB0001B681846FFF7A9FF009B5B68B3F1FF3F66
:101BC00005D0009B5B6800211846FFF7AFFF019B23
:101BD0001A68009B9B6919461046FFF716FF019B88
:101BE0001868009B597D009B1B7D1A46FFF7F8FE85
:101BF000019B1868009B1968009B5B681A46FFF7F9
:101C0000C3FE009B1B7D012B22D1009B9B68B3F17F
:101C1000FF3F05D0009B9B6800211846FFF786FF19
:101C2000009BDB68B3F1FF3F09D0009BDB681846DF
:101C3000FFF791FF009BDB681846FFF766FF019BEB
:101C40001868009BD968009B9B681A46FFF7ABFE9B
:101C500000BF03B05DF804FB00B583B001900B46F4
:101C60008DF80330019B1B684FF488711846FFF70D
:101C70001CFE019B1B684FF490711846FFF715FE80
:101C8000019B1B684FF492711846FFF70EFE019BF3
:101C90001B684FF4A2711846FFF707FE019B1B68F3
:101CA0004FF4AC711846FFF700FE019B1B680F490B
:101CB0001846FFF73EFE019B1B681846FFF7CAFD5A
:101CC00003461A469DF8033019461046FFF7CAFD31
:101CD000019B1B681846FFF7BDFD03461846FFF73A
:101CE000D6FD00BF03B05DF804FB00BF1003420047
:101CF00000B587B0039002910192039B1B791A46AD
:101D00001346DB0013449B00264A1344059300232B
:101D10000493059B93F82030002B03D008230493F1
:101D2000049B3AE0039B1A68039B1B7919461E4BE0
:101D300053F8213019461046FEF726FF0346002BC4
:101D400003D011230493049B27E002990398FFF723
:101D500020FF059B019A5A60029B1A69059B1A6035
:101D6000059B5B68002B05D0029B1B7F19460398DF
:101D7000FFF772FF039B1B681846FFF7FCFD059BEE
:101D800000229A61059B0022DA61059B00225A61BC
:101D9000059B012283F82020049B184607B05DF8BC
:101DA00004FB00BF94000020B087000000B589B09C
:101DB000039002910192039B1B791A461346DB00A4
:101DC00013449B00434A134406930298FFF734FDE3
:101DD000034683F00103DBB2002B03D010230793EB
:101DE000079B73E0039800F077F80346002B03D0BD
:101DF00011230793079B69E0069B019A5A61069B92
:101E0000029A9A6000230793039B1B684FF490711A
:101E10001846FFF74AFD039B1B684FF4AC71184648
:101E2000FFF743FD039B1868069B9968069B5B6957
:101E30001A46FFF7F4FD039B1B6808211846FFF7BD
:101E4000C1FD069B5B68002B3FD1039B1B684FF4D1
:101E500090711846FFF73EFD03468DF81730039B3F
:101E60001B684FF4AC711846FFF734FD03468DF83C
:101E700016309DF8173083F00103DBB2002B06D03B
:101E80009DF8163083F00103DBB2002BDDD19DF805
:101E90001630002B02D00F23079313E0039B1B681F
:101EA0000C211846FFF78EFD00BF039B1B684FF403
:101EB000AC711846FFF70EFD034683F00103DBB259
:101EC000002BF2D1069B00225A61079B184609B0ED
:101ED0005DF804FB9400002082B00190019B1B7907
:101EE0001946084A0B46DB000B449B00134414338D
:101EF0001B68002B14BF01230023DBB2184602B07D
:101F0000704700BF9400002000B589B00390029193
:101F10000192039B1B791A461346DB0013449B0076
:101F20006F4A134405930298FFF786FC034683F03B
:101F30000103DBB2002B03D010230793079BCAE0F9
:101F400000238DF81B30059B5B68002B06D0039B9C
:101F50001B684FF404711846FFF7F5FC059B9B695D
:101F6000002B15D0059BDB69002B0ED0059B5B6811
:101F7000002B06D0039B1B684FF404711846FFF733
:101F8000D8FC11230793079BA5E001238DF81B3094
:101F90009DF81B3083F00103DBB2002B09D0059BB9
:101FA000019A9A61059B029ADA60059B0022DA6128
:101FB00005E0059B029A1A61059B019ADA610023EC
:101FC0000793039B1B684FF488711846FFF76DFC5D
:101FD000039B1B684FF4A2711846FFF766FC039B36
:101FE0001B68019A02991846FFF730FD9DF81B30D7
:101FF00083F00103DBB2002B06D0039B1B6800219A
:102000001846FFF7DFFC05E0039B1B6820211846FC
:10201000FFF772FC039B1B791946314A0B46DB0024
:102020000B449B00134404331B68002B4BD1039BD0
:102030001B684FF488711846FFF74CFC03468DF877
:102040001330039B1B684FF4A2711846FFF742FC44
:1020500003468DF81230039B1B684FF492711846AB
:10206000FFF738FC03468DF811309DF8133083F0EC
:102070000103DBB2002B0DD09DF8123083F0010379
:10208000DBB2002B06D09DF8113083F00103DBB2E8
:10209000002BCCD1039B1B791946114A0B46DB0060
:1020A0000B449B001344183300221A609DF8113032
:1020B000002B01D0032307939DF81230002B09D089
:1020C0000F23079306E0039B1B684FF40471184627
:1020D000FFF72FFC079B184609B05DF804FB00BF13
:1020E0009400002000B589B0039002910192012371
:1020F0008DF81030029B0693019B0593039B5B6850
:10210000039A116804AA1046984700BF09B05DF809
:1021100004FB00B587B00190009100238DF80830D2
:10212000009B0493019B9B680393019B00225A61CF
:10213000019B5B68019A116802AA1046984700BF8C
:1021400007B05DF804FB00B589B0019000914FF431
:1021500092710198FFF7BEFB0346002B22D04FF48B
:1021600092710198FFF7A1FB02238DF808300198C6
:10217000FFF7F3FB034605930198FFF776FC034650
:102180000493009BDB680393009B00229A61009BF1
:102190000022DA61009B5B68009A116802AA10466F
:1021A00098473BE04FF488710198FFF793FB034693
:1021B000002B33D04FF488710198FFF776FB01981C
:1021C000FFF753FC0790009B9B69079A9A4225D121
:1021D000009BDB69002B17D0009BDB680693202156
:1021E0000198FFF797FB009BDA69009B9A61009BBF
:1021F0001A69009BDA60009B0022DA61069A07994F
:102200000098FFF76FFF09E0009B00229A61009B96
:10221000DB681A4607990098FFF764FF4FF4A27134
:102220000198FFF757FB0346002B18D04FF4A2711B
:102230000198FFF73AFB009B9B69002B0FD0009B96
:1022400000229A61009B0022DA610198FFF70DFCE1
:102250000146009BDB681A460098FFF743FF4FF4E6
:1022600090710198FFF736FB0346002B14D04FF412
:1022700090710198FFF719FB0C210198FFF7A2FB61
:10228000009B5B69002B07D00198FFF7D7FB034643
:1022900019460098FFF73DFF4FF4AC710198FFF726
:1022A00019FB0346002B10D04FF4AC710198FFF7D7
:1022B000FCFA009B5B69002B07D00198FFF7BEFB7F
:1022C000034619460098FFF724FF00BF09B05DF8E8
:1022D00004FB000008B503490348FFF734FF00BFC3
:1022E00008BD00BF940000200020004082B00346DB
:1022F0008DF807309DF8073003F01F0205499DF95E
:1023000007305B09012000FA02F241F8232000BFE8
:1023100002B0704700E100E082B003468DF807305C
:102320009DF8073003F01F0206499DF907305B094D
:10233000012000FA02F2203341F8232000BF02B04E
:10234000704700BF00E100E082B0034600918DF8C5
:1023500007309DF90730002B0CDA009BDAB20C49EC
:102360009DF8073003F00F03043B5201D2B20B4437
:102370001A7609E0009BDAB206499DF9073052014E
:10238000D2B20B4483F8002300BF02B0704700BFF5
:1023900000ED00E000E100E082B00190019B03F05D
:1023A0006043B3F1005F0CBF01230023DBB218468A
:1023B00002B0704782B00190019B1B0B5BB21846C4
:1023C00002B0704700B583B003460A468DF8073067
:1023D00013468DF806309DF806209DF9073011460A
:1023E0001846FFF7B1FF00BF03B05DF804FB00B56E
:1023F00083B003468DF807309DF907301846FFF784
:1024000075FF00BF03B05DF804FB00B583B0034661
:102410008DF807309DF907301846FFF77DFF00BFA4
:1024200003B05DF804FB82B001900B468DF80330D9
:102430009DF80330019A134401221A6000BF02B0D4
:10244000704784B001900B46ADF80230BDF8023001
:10245000019A134400221A60BDF80230019A134415
:102460001B680393039B00BF04B0704782B00190C8
:102470000B46ADF80230BDF80230019A13441B68D8
:10248000002B14BF01230023DBB2184602B07047B3
:1024900082B001900091019B009AC3F8042300BF11
:1024A00002B0704782B001900091019B009AC3F87E
:1024B000082300BF02B0704782B001900091019BD9
:1024C000D3F80423009B1340002B14BF01230023E7
:1024D000DBB2184602B0704782B00190019B072220
:1024E000C3F8002500BF02B0704782B00190019B85
:1024F0000022C3F8002500BF02B0704784B00390EB
:10250000029101920093039B029AC3F80825039B52
:10251000019AC3F80C25039B009AC3F8102500BF4D
:1025200004B0704782B001900091009A019BC3F8FB
:10253000242500BF02B0704784B00390029101923D
:10254000029A039BC3F84425039B019AC3F84825CC
:1025500000BF04B0704784B0039002910192029AC8
:10256000039BC3F83425039B019AC3F8382500BFA9
:1025700004B0704784B001900B468DF803301346C9
:102580008DF802309DF80230002B14BF0123002388
:10259000DBB203939DF80330032B10D0032B13DC25
:1025A000012B02D0022B05D00EE0039B43F0020367
:1025B00003930AE0039B43F00403039305E0039BAA
:1025C00043F00603039300E000BF019B039AC3F8A6
:1025D000542500BF04B0704782B001900B468DF8BF
:1025E00003309DF80320019BC3F8C02500BF02B053
:1025F000704782B00190019B0122C3F8502500BFB3
:1026000002B0704782B00190019B0022C3F85025B0
:1026100000BF02B0704782B00190019B0122C3F855
:10262000402500BF02B0704782B00190019B00229C
:10263000C3F8402500BF02B07047000082B001908F
:10264000019B1B681F2B02D84FF0A04306E0019BA3
:102650001B6803F01F02019B1A60024B184602B070
:10266000704700BF0003005000B585B001900846D8
:1026700011461A4603468DF803300B468DF802309A
:1026800013468DF8013001AB1846FFF7D7FF0390D2
:102690009DF803209DF802305B001A439DF801303D
:1026A0009B001A439DF818301B0242EA03019DF873
:1026B0001C301B04019A1943039B02F5E07243F896
:1026C000221000BF05B05DF804FB00B585B0039093
:1026D000002301930023009300230122012103988A
:1026E000FFF7C2FF00BF05B05DF804FB00B585B081
:1026F00003900B468DF80B309DF80B3000220192B1
:1027000000220092002200210398FFF7ADFF00BFD6
:1027100005B05DF804FB00B585B00390002301937C
:10272000002300930023012200210398FFF79CFF60
:1027300000BF05B05DF804FB00B585B0019001ABAA
:102740001846FFF77BFF0390019B012202FA03F377
:102750001946039800F018F800BF05B05DF804FBB7
:1027600000B585B0019001AB1846FFF767FF0390F5
:10277000019B012202FA03F31946039800F00EF8B8
:1027800000BF05B05DF804FB82B001900091019B91
:10279000009AC3F8082500BF02B0704782B00190CC
:1027A0000091019B009AC3F80C2500BF02B070474E
:1027B00000B58DB00590049103920293059B1B799F
:1027C0001A462C2302FB03F36A4A13440993099B1C
:1027D0001B7F002B03D008230793079BC5E0059BB5
:1027E0001B680893059B1A68059B1B791946624B69
:1027F00053F8213019461046FEF7C6F90346002B60
:1028000003D011230793079BAFE0099B039A1A603B
:10281000099B029A5A60049B1B7B012B05D8049BE1
:102820001B781846FFF79CFF04E0049B1B781846B2
:10283000FFF782FF049B1B781846002301930023B7
:102840000093002300220121FFF70EFF049B5B7819
:10285000FF2B09D0049B5B780B930B98FFF780FF4D
:102860000B98FFF732FF02E04FF0FF330B93049B0E
:102870009B78FF2B07D0049B9B780A9301210A9831
:10288000FFF734FF02E04FF0FF330A93049B9A787E
:10289000099B83F82020049BDA78099BDA77049B54
:1028A000DB78FF2B17D0049B1B79002B05D0049BF2
:1028B000DB781846FFF754FF04E0049BDB781846EA
:1028C000FFF73AFF049BDB781846FFF7FEFE049BF8
:1028D0001A79099B9A77049B1B7819460A9B0B9AD5
:1028E0000898FFF70BFE049B9B6819460898FFF7B2
:1028F00019FE049B197B049B5B7B1A460898FFF723
:1029000039FE049B9B7919460898FFF765FE099BE1
:102910001B68002B03D040210898FFF7B9FD0898E9
:10292000FFF7DAFD099B1B68002B15D0059B1B6880
:102930001846FFF73FFD03461A46049B5B7919468C
:102940001046FFF73FFD059B1B681846FFF732FD59
:1029500003461846FFF74BFD099B00225A77099B57
:1029600001221A7700230793079B18460DB05DF8E4
:1029700004FB00BFB8000020B487000000B585B09C
:102980000190019B1B791A462C2302FB03F3264A74
:1029900013440393039B1B68002B08D0019B1B6807
:1029A0001846FFF707FD03461846FFF72EFD019B6B
:1029B0001B680293039B1B68002B1BD01B490298CA
:1029C000FFF770FD039B5B7FDBB2002B12D014215D
:1029D0000298FFF728FD00BF4FF482710298FFF7BD
:1029E00045FD034683F00103DBB2002BF4D1039BCA
:1029F00000225A77039B93F82030FF2B05D0039BCE
:102A000093F820301846FFF786FE0298FFF76DFD19
:102A1000019B1B681846FEF7E8F8039B00221A7713
:102A200000BF05B05DF804FBB800002052010800AB
:102A300000B583B00190019BDB7FFF2B0ED0019B83
:102A40009B7F002B05D0019BDB7F1846FFF788FE9C
:102A500004E0019BDB7F1846FFF76EFE019B00221E
:102A60005A77019B00221A72019B1B68019A02F19E
:102A70000800019A52681146984700BF03B05DF8FC
:102A800004FB00B583B001900B468DF803309DF830
:102A9000033083F00103DBB2002B04D04021019806
:102AA000FFF700FD03E040210198FFF7F1FC00BFB4
:102AB00003B05DF804FB00B583B001900091009B6A
:102AC00003F00103002B03D00198FFF792FD02E011
:102AD0000198FFF797FD009B03F00203002B03D042
:102AE0000198FFF798FD02E00198FFF79DFD00BFF8
:102AF00003B05DF804FB00B587B00390029101922A
:102B00000093019B1B68002B0AD0019B1B68184691
:102B1000FFF742FC034683F00103DBB2002B0ED12A
:102B2000019B9B68002B11D0019B9B681846FFF707
:102B300033FC034683F00103DBB2002B06D0029B7B
:102B400000225A7710230593059B7FE0029B002209
:102B50005A62029B00229A62019B1968019B5B6882
:102B60001A460398FFF7E8FC019B9968019BDB6814
:102B70001A460398FFF7EFFC4FF48C710398FFF7A8
:102B800060FC00990398FFF796FF009B03F0080391
:102B9000002B03D110210398FFF745FC009B03F0A5
:102BA0000803002B1FD04FF4A6710398FFF749FCD0
:102BB000019B5A68029B5A62019BDA68029B9A62E7
:102BC000019B1B68002219460398FFF7B5FC019B87
:102BD0009B68002219460398FFF7BDFC4FF40021C3
:102BE0000398FFF755FC029B1B68002B1FD100BF09
:102BF0004FF48C710398FFF739FC034683F001030F
:102C0000DBB2002BF4D1029BDB7FFF2B1BD0029B9E
:102C10009B7F002B05D0029BDB7F1846FFF7A0FDB2
:102C200011E0029BDB7F1846FFF786FD0BE0009B5F
:102C300003F00403002B0CBF01230023DBB2194671
:102C40000398FFF71EFF00230593059B184607B066
:102C50005DF804FB10B586B0039002910192039BCE
:102C60001B791A462C2302FB03F3204A13440493D6
:102C700000230593049B5B7FDBB2002B03D0112361
:102C80000593059B2EE0049B1B68002B07D0019B3E
:102C900003F01403002B02D1049B01225A77049BFA
:102CA000029A03F10C0413460FCB84E80F00049B37
:102CB000DB7FFF2B0ED0049B9B7F002B05D0049B5A
:102CC000DB7F1846FFF738FD04E0049BDB7F1846E6
:102CD000FFF746FD039B1868019B029A0499FFF7D2
:102CE0000AFF0346184606B010BD00BFB80000201A
:102CF00000B583B0019000914FF400210198FFF7D7
:102D0000DBFB0346002B25D04FF4A6710198FFF79B
:102D1000ADFB0346002B1DD04FF4A6710198FFF7C1
:102D200090FB4FF48C710198FFF78BFB009B5A6A64
:102D3000019BC3F84825009B9A6A019BC3F838257C
:102D40004FF400210198FFF7ADFB10210198FFF728
:102D50006AFB0FE04FF48C710198FFF787FB034685
:102D6000002B07D04FF48C710198FFF76AFB009895
:102D7000FFF75EFE03B05DF804FB000008B50349F1
:102D80000348FFF7B5FF00BF08BD00BFB800002033
:102D90000030004082B003468DF807309DF80730C0
:102DA00003F01F0205499DF907305B09012000FA75
:102DB00002F241F8232000BF02B0704700E100E0BA
:102DC00082B0034600918DF807309DF90730002B43
:102DD0000CDA009BDAB20C499DF8073003F00F03C0
:102DE000043B5201D2B20B441A7609E0009BDAB2DE
:102DF00006499DF907305201D2B20B4483F80023F3
:102E000000BF02B0704700BF00ED00E000E100E04D
:102E100000B583B003460A468DF8073013468DF897
:102E200006309DF806209DF9073011461846FFF739
:102E3000C7FF00BF03B05DF804FB00B583B00346D5
:102E40008DF807309DF907301846FFF7A3FF00BF44
:102E500003B05DF804FB00B583B00346ADF806305F
:102E6000BDF80630184600F026F803461B68012B13
:102E70000CBF01230023DBB2184603B05DF804FB4E
:102E800000B585B00346ADF80630BDF806301846EB
:102E900000F011F803461A4600231360BDF806300F
:102EA000184600F008F803461B680393039B00BF15
:102EB00005B05DF804FB82B00346ADF80630BDF8FE
:102EC000063003F1804303F5C043184602B0704753
:102ED00082B00190034A019BC2F8043300BF02B0E4
:102EE000704700BF0060004082B00190034A019B20
:102EF000C2F8083300BF02B0704700BF0060004056
:102F000082B00190034BD3F80423019B1340184671
:102F100002B070470060004082B00190084A019BF7
:102F200003F5A27352F82330054943F00102019BD7
:102F300003F5A27341F8232000BF02B0704700BF21
:102F40000060004082B00190084A019B03F5A27323
:102F500052F82330054923F00102019B03F5A273C7
:102F600041F8232000BF02B0704700BF006000405E
:102F700084B00390029113468DF80730144A039BE6
:102F800003F5A27352F82330114923F44F3323F48D
:102F90004073039A02F5A27241F822300C4A039B57
:102FA00003F5A27352F82320029B1B0203F47C5109
:102FB0009DF807301B0403F440330B4304491A43C4
:102FC000039B03F5A27341F8232000BF04B07047B0
:102FD0000060004082B00190054A019B03F5A27396
:102FE00052F823301B0A03F03F03184602B0704723
:102FF0000060004082B00190064A019B03F5A27375
:1030000052F823301B0C03F00303DBB2184602B066
:10301000704700BF0060004082B00190019B1B68B8
:103020001F2B02D84FF0A04306E0019B1B6803F062
:103030001F02019B1A60024B184602B0704700BF86
:103040000003005000B585B00190084611461A46AD
:1030500003468DF803300B468DF8023013468DF889
:10306000013001AB1846FFF7D7FF03909DF803200E
:103070009DF802305B001A439DF801309B001A4313
:103080009DF818301B0242EA03019DF81C301B0416
:10309000019A1943039B02F5E07243F8221000BF26
:1030A00005B05DF804FB00B585B003900B468DF8C4
:1030B0000B309DF80B30002201920022009200227A
:1030C00000210398FFF7BEFF00BF05B05DF804FBC9
:1030D00000B585B0019001AB1846FFF79DFF039046
:1030E000019A039B02F5E07253F8223023F00203A9
:1030F0000293019A039B02F5E072029943F82210B1
:1031000000BF05B05DF804FB00B585B001900B462B
:103110008DF8033001AB1846FFF77EFF0390019A4C
:10312000039B02F5E07253F82230019A23F44031F8
:10313000039B02F5E07243F82210019A039B02F50B
:10314000E07253F822309DF8032012041146019AD0
:103150001943039B02F5E07243F8221000BF05B04B
:103160005DF804FB00B585B0019001AB1846FFF790
:1031700053FF0390039800F020F80246019B22FAC7
:1031800003F303F00103184605B05DF804FB00B536
:1031900085B0019001AB1846FFF73EFF0390019AFE
:1031A000039B02F5E07253F822301B0C03F003037B
:1031B000DBB2184605B05DF804FB82B00190019BBC
:1031C000D3F81035184602B07047000000B589B03A
:1031D000039002910192134A05AB92E8030083E841
:1031E0000300039B079311E0079B9B0008AA13446D
:1031F00053F80C3C1846FFF7E0FF0246019B1A60AB
:10320000019B04330193079B01330793039A029BAD
:103210001344079A9A42E7D300BF00BF09B05DF894
:1032200004FB00BFB887000084B001900091009BB0
:103230000393019BDB080293019B03F007030193B7
:103240000122019B02FA03F30399029A0A441278BD
:103250001340184604B0704784B001900091009B61
:103260000393019BDB080293019B03F00703019387
:10327000039A029B13441B785AB20121019B01FA65
:1032800003F35BB2134359B2039A029B1344CAB2CD
:103290001A7000BF04B0704782B001900C4A019BC5
:1032A0001344243393F90030002B09DB084A019BB7
:1032B0001344243393F90030072B01DC012300E091
:1032C000002303F00103DBB2184602B0704700BFD1
:1032D000E400002082B00190064A019B134424338D
:1032E00093F90030072BCCBF01230023DBB2184633
:1032F00002B07047E400002082B00190064A019BB2
:103300001344243393F90030DB43DBB2DB09DBB237
:10331000184602B0704700BFE400002084B003905C
:10332000029101928DF80330029B59B20E4A039B21
:10333000134424330A461A700B49029B019A41F840
:1033400023209DF8033083F00103DBB2002B08D06B
:10335000029B083B039A51B2034A13440A4683F87E
:103360004E2000BF04B07047E400002082B00190FE
:10337000044A019B13442433FF221A7000BF02B099
:10338000704700BFE400002000B583B001900449FD
:103390000198FFF761FF00BF03B05DF804FB00BFB9
:1033A0003301002082B00190044A019B134424336E
:1033B00093F90030184602B0704700BFE4000020C7
:1033C00082B00190034A019B52F82330184602B0A4
:1033D000704700BFE400002000B589B0039002915F
:1033E00013468DF80730FF238DF81F309DF8073006
:1033F000002B01D0002300E0082305939DF807303F
:10340000002B01D0082300E009230493059B0693B9
:1034100014E00F4A069B52F82330B3F1FF3F0AD164
:103420009DF80730029A06990398FFF777FF069BED
:103430008DF81F3006E0069B01330693069A049B25
:103440009A42E6D39DF91F30184609B05DF804FB97
:10345000E400002082B003468DF807309DF8073065
:10346000094A4FF0FF3142F823109DF80730072B2F
:1034700007D99DF80730083B034A1344FF2283F81D
:103480004E2000BF02B07047E400002000B583B0BA
:10349000254B93F85530002B03D008230093009B55
:1034A0003EE000238DF8073009E09DF8073018460C
:1034B000FFF75CFF9DF8073001338DF807309DF86A
:1034C0000730292BF1D900238DF8073009E09DF84A
:1034D00007301846FFF7BEFF9DF8073001338DF81F
:1034E00007309DF80730082BF1D9062200210F483C
:1034F00004F0CAFD06210620FFF78AFC0620FFF72C
:103500009CFC4FF4BE70FFF7BBFC4FF00040FFF790
:10351000DFFC054B012283F8552000230093009B1C
:10352000184603B05DF804FBE400002033010020DE
:1035300000B587B003900291019200230593039890
:10354000FFF7DAFE0346002B02D00823059357E06D
:10355000029B9B78C3F34003DBB21A4601990398A0
:10356000FFF73AFF03468DF813309DF91330B3F19E
:10357000FF3F43D0029B9B78C3F38003DBB283F011
:103580000103DBB2002B13D0029B9B7803F00103F5
:10359000DBB2002B03D00398FFF79AFD05E0029BF6
:1035A0005B7819460398FFF77EFD0398FFF7ECFE62
:1035B000029B9B7803F00203DBB2002B08D09DF93D
:1035C0001300029B1B781A460399FFF7D1FC17E002
:1035D0009DF91330083B0D4A134493F94E10029B9A
:1035E0001B789B015AB29DF91330083B0A4351B234
:1035F000064A13440A4683F84E2001E0042305934B
:10360000059B184607B05DF804FB00BFE4000020EE
:1036100000B589B001900B468DF803300198FFF793
:1036200059FE0346002B2FD00198FFF7BBFE03463F
:10363000083B304A134493F94E308DF80F309DF813
:103640000F309B098DF80E309DF80E30032B0BD1F7
:103650000198FFF787FD0346002B01D0032300E00C
:1036600002238DF81F3008E09DF80E30012B01D1A8
:10367000022300E003238DF81F309DF81F30194608
:103680000198FFF741FD30E00198FFF705FE034682
:10369000002B2AD00198FFF785FE03460693069B70
:1036A0009BB240339BB29B00ADF81630069B184688
:1036B000FFF732FCBDF816301846FFF7E1FB9DF826
:1036C0000330002B11D00198FFF76CFE034618461B
:1036D000FFF776FE0490049B002B06D00122069B88
:1036E00002FA03F31846FFF7F3FB00BF09B05DF8D9
:1036F00004FB00BFE400002000B585B001900198F4
:10370000FFF7E8FD0346002B04D000210198FFF7E6
:10371000FBFC15E00198FFF7BFFD0346002B0FD01F
:103720000198FFF73FFE03460393039B1846FFF7FC
:1037300009FC0122039B02FA03F31846FFF7D4FBAE
:1037400000BF05B05DF804FB00B599B000231793E6
:1037500006AB00221A605A604FF48073ADF8563001
:10376000012314930023169321E0BDF85630184628
:10377000FFF771FB0346002B0ED01498FFF7C0FB38
:103780000346002B08D0BDF856301846FFF778FBEB
:10379000179A149B13431793149B5B001493BDF863
:1037A00056300433ADF85630169B01331693169BF2
:1037B000072BDAD94FF4BE70FFF74DFB0346002B01
:1037C0000DD04FF4BE70FFF75BFB179B43F0004337
:1037D000179306AB1A4602210020FFF7F7FC179B50
:1037E000DBB2002B29D0012314930023169321E090
:1037F000149A179B1340002B16D01698FFF7EAFB7C
:1038000011901698FFF7F6FB03468DF84330169893
:10381000FFF7D6FD0F900F9B002B05D09DF843209E
:103820000F9B114611989847149B5B001493169BAD
:1038300001331693169B072BDAD9179B002B80F2C6
:10384000F08000238DF84B3004AB00221A605A60E0
:10385000002313930AE0139B9B0018AA13444FF014
:10386000FF3243F8582C139B01331393139B012B06
:10387000F1D900238DF84B300023169378E06B4A82
:10388000169B13444E3393F900308DF83B309DF86E
:103890003B3023F0C0030D93644A169B13444E3310
:1038A00093F90030B3F1FF3F5FD002AB19460D989A
:1038B000FFF7BAFC0346002B57D09DF83B309B091D
:1038C0008DF833300D98FFF76DFD03461846FFF76E
:1038D00077FD0B900B9B002B03D19DF83330032B0E
:1038E00043D19DF83330032B04D104AB19460D9816
:1038F000FFF7B2FC0D98FFF74AFC03468DF82B301A
:1039000006AB19460D98FFF78FFC0990099B002B19
:1039100003D09DF82B30022B06D0099B002B24D11D
:103920009DF82B30032B20D19DF83330032B13D17E
:103930009DF82B30022B01D1032300E002238DF8E8
:1039400023309DF8233019460D98FFF7DDFB9DF8D5
:103950004B3001338DF84B300B9B002B05D09DF87D
:1039600033200B9B11460D989847169B01331693F5
:10397000169B002B83D09DF84B30002B4CD001239D
:103980008DF84A306B461A4602210020FFF71EFCD4
:103990000023139314E0139B9B0018AA134453F8BD
:1039A000602C139B9B0018A90B4453F8483C9A4287
:1039B00003D000238DF84A3005E0139B01331393A5
:1039C000139B012BE7D99DF84A30002B03D000232D
:1039D0008DF84B3020E0002313931AE0139B9B00DB
:1039E00018AA134453F8602C139B9B0018A90B448E
:1039F00043F8482C139B9B0018AA134453F8502CEF
:103A0000139B9B0018A90B4443F8582C139B0133BC
:103A10001393139B012BE1D99DF84B30002B7FF4BE
:103A200028AF00BF19B05DF804FB00BFE400002020
:103A300000B585B00190019B002B0AD0074B43F0E5
:103A400001030393019B9B010293039B02989847F8
:103A500000E000BF05B05DF804FB00BFC0870000B8
:103A600082B00190019B1B681F2B02D84FF0A0432E
:103A700006E0019B1B6803F01F02019B1A60024BCA
:103A8000184602B0704700BF0003005000B585B073
:103A9000019001AB1846FFF7E3FF0390019B012261
:103AA00002FA03F31946039800F035F800BF05B099
:103AB0005DF804FB00B585B0019001AB1846FFF737
:103AC000CFFF0390019B012202FA03F319460398EA
:103AD00000F02BF800BF05B05DF804FB00B585B021
:103AE000019001AB1846FFF7BBFF0390039800F06D
:103AF0000AF80246019B22FA03F303F00103184679
:103B000005B05DF804FB82B00190019BD3F810353D
:103B1000184602B0704782B001900091019B009A54
:103B2000C3F8082500BF02B0704782B00190009131
:103B3000019B009AC3F80C2500BF02B0704700B586
:103B400085B001904FF0A042019B1B6803F5E07324
:103B500040F20C6142F823104FF0A042019B5B68D9
:103B600003F5E07340F20C6142F82310019B1B68DF
:103B70001846FFF78BFF019B5B681846FFF786FF2F
:103B80004FF0A042019B1B6803F5E07340F20D610A
:103B900042F823104FF0A042019B5B6803F5E073ED
:103BA00040F20D6142F823100420FFF741FF00238B
:103BB00003931EE0019B5B681846FFF78FFF0346E7
:103BC000002B03D0039B002B17D124E0019B1B6823
:103BD0001846FFF76FFF0420FFF72AFF019B1B68C1
:103BE0001846FFF753FF0420FFF722FF039B013322
:103BF0000393039B082BDDDD00E000BF019B5B68A6
:103C00001846FFF757FF0420FFF712FF019B5B6880
:103C10001846FFF73BFF05B05DF804FB00B589B01F
:103C200001900091009B0793019B1B788DF80C304D
:103C3000019B1B798DF81030019B5B798DF8113059
:103C4000019B9B68DBB28DF81230019BDB68DBB215
:103C50008DF81330019B1B690593019B5B690693EB
:103C6000074A079B52F823300649079A51F8221059
:103C700003AA1046984700BF09B05DF804FB00BFD7
:103C80003C0100204401002000B587B00390029160
:103C900001920093039B1B7805931249059B019A9F
:103CA00041F823201049059B009A41F82320029BEC
:103CB0005B7B002B02D00298FFF741FF00230493A7
:103CC000039B181D019B002B01D0084A00E0002235
:103CD000059B029900F08CF90490049B184607B0EC
:103CE0005DF804FB3C010020440100201D3C000065
:103CF00082B003468DF807309DF8073003F01F02AD
:103D000005499DF907305B09012000FA02F241F8EC
:103D1000232000BF02B0704700E100E082B00346FC
:103D200000918DF807309DF90730002B0CDA009BCD
:103D3000DAB20C499DF8073003F00F03043B52013F
:103D4000D2B20B441A7609E0009BDAB206499DF91B
:103D500007305201D2B20B4483F8002300BF02B0F7
:103D6000704700BF00ED00E000E100E082B001908C
:103D7000019B1B0B5BB2184602B0704700B583B0C5
:103D800003460A468DF8073013468DF806309DF835
:103D900006209DF9073011461846FFF7BFFF00BF08
:103DA00003B05DF804FB00B583B003468DF807301F
:103DB0009DF907301846FFF79BFF00BF03B05DF881
:103DC00004FB82B001900B468DF803309DF8033060
:103DD000019A134401221A6000BF02B0704784B0F8
:103DE00001900B46ADF80230BDF80230019A134441
:103DF00000221A60BDF80230019A13441B68039335
:103E0000039B00BF04B0704782B001900B46ADF831
:103E10000230BDF80230019A13441B68002B14BF16
:103E200001230023DBB2184602B0704782B0019034
:103E30000091019B009AC3F8042300BF02B07047B1
:103E400082B001900091019B009AC3F8082300BF43
:103E500002B0704782B00190019B0522C3F8002593
:103E600000BF02B0704782B00190019B0022C3F8EE
:103E7000002500BF02B0704784B003900291019208
:103E8000039B029AC3F80825039B019AC3F80C25EB
:103E900000BF04B0704782B001900091019B009A6E
:103EA000C3F8242500BF02B0704784B00190019B85
:103EB000D3F8C4340393019B039AC3F8C424039B2F
:103EC000184604B0704782B001900B468DF803305D
:103ED0009DF80320019BC3F8882500BF02B07047FE
:103EE00082B00190019BD3F81835DBB2184602B0BE
:103EF000704782B001900B468DF803309DF8032087
:103F0000019BC3F81C2500BF02B0704782B001902E
:103F10000091019B009AC3F8002200BF02B07047D5
:103F200082B00190019B1B681F2B02D84FF0A04369
:103F300006E0019B1B6803F01F02019B1A60024B05
:103F4000184602B0704700BF0003005000B585B0AE
:103F50000190084611461A4603468DF803300B4679
:103F60008DF8023013468DF8013001AB1846FFF78B
:103F7000D7FF03909DF803209DF802305B001A43A1
:103F80009DF801309B001A439DF818301B0242EA4D
:103F900003019DF81C301B04019A1943039B02F591
:103FA000E07243F8221000BF05B05DF804FB84B056
:103FB000019003230393019B03F00103002B02D024
:103FC0004FF402430393019B03F00203002B02D042
:103FD00048F201230393019B03F00403002B02D05A
:103FE00048F202230393039B184604B07047000075
:103FF00000B58BB00590049103920293059B1B7949
:104000001A4613461B019B1A9B00424A134409930C
:10401000099B93F82E30002B03D008230793079BAE
:1040200074E0059B1A68059B1B7919463A4B53F8B7
:10403000213019461046FCF7A7FD0346002B03D09C
:1040400011230793079B61E0099B039A1A60099B60
:10405000029A5A60099B00229A60099B002283F809
:104060002D20099B002283F83120099B002283F830
:104070003020049B5A7B099B83F83820049B1868E6
:104080000023019306230093032300220021FFF75E
:104090005DFF049B586800230193062300930323CC
:1040A00000220021FFF752FF059B1B680893049B29
:1040B0001968049B5B681A460898FFF7DDFE049BAD
:1040C0009B6819460898FFF7E6FE099B1B68002BC2
:1040D00015D0059B1B681846FFF748FE03461A4695
:1040E000049B1B7B19461046FFF748FE059B1B6887
:1040F0001846FFF73BFE03461846FFF754FE099BA0
:10410000012283F82E2000230793079B18460BB04B
:104110005DF804FB4C010020C887000000B585B0A5
:104120000190019B1B791A4613461B019B1A9B00A9
:10413000084A13440393019B1B6802930298FFF7FC
:1041400089FE039B022283F82E2000BF05B05DF894
:1041500004FB00BF4C01002000B583B0019000912A
:10416000009B5A6B009B9B6A9A420FD2009B5A6A33
:10417000009B5B6B13441B7819460198FFF7B9FE4F
:10418000009B5B6B5A1C009B5A631EE0009B93F8DC
:104190002C30002B05D01C210198FFF712FE0023C4
:1041A00014E0009B1B6A03F04003002B09D01C2184
:1041B0000198FFF706FE009B012283F82D200023C3
:1041C00004E014210198FFF7FCFD0123184603B019
:1041D0005DF804FB10B582B001900091009B5A6B12
:1041E000009B9B6A9A4244D2009B5A6A009B5B6B7D
:1041F000D4180198FFF774FE03462370009B5B6B95
:104200005A1C009B5A63009B5A6B009B9B6A013BA4
:104210009A420AD1009B1B6A03F04003002B04D191
:1042200002210198FFF772FE1FE0009B5A6B009B72
:104230009B6A9A4207D1009B1B6A03F04003002B44
:1042400001D1012316E0009B5A6B009B9B6A9A42A6
:104250000BD1009B1B6A03F04003002B05D0009B91
:10426000022283F82D20002304E020210198FFF78B
:10427000A8FD0123184602B010BD00B585B001901D
:104280000091009B93F82F30002B05D1009B5A6BB7
:10429000009B9B6A9A4201D1012300E000238DF824
:1042A0000F309DF80F3003F001038DF80F30009BA5
:1042B00093F82F30002B0FD04FF492710198FFF735
:1042C0008EFD4FF48E710198FFF789FD4FF48471D4
:1042D0000198FFF784FD73E04FF492710198FFF7A6
:1042E00093FD0346002B0DD04FF492710198FFF718
:1042F00076FD14210198FFF764FD009B012283F8ED
:104300002F205DE04FF48E710198FFF77DFD03468D
:10431000002B26D04FF48E710198FFF760FD4FF40B
:1043200092710198FFF770FD0346002B0DD04FF4FA
:1043300092710198FFF753FD14210198FFF741FD99
:10434000009B012283F82F203AE000990198FFF7A3
:1043500003FF034683F00103DBB2002B30D00023C0
:1043600046E04FF484710198FFF74EFD0346002BA1
:1043700026D04FF484710198FFF731FD4FF492710C
:104380000198FFF741FD0346002B0DD04FF49271C9
:104390000198FFF724FD14210198FFF712FD009BFF
:1043A000012283F82F200BE000990198FFF712FFFC
:1043B000034683F00103DBB2002B01D0002317E09A
:1043C0009DF80F30002B12D04FF482710198FFF747
:1043D0001BFD0346002B0AD04FF482710198FFF7B2
:1043E000FEFC009B002283F82D20002300E0012327
:1043F000184605B05DF804FB00B587B00190009148
:1044000000230593364B03934FF482710198FFF715
:10441000E6FC4FF492710198FFF7E1FC4FF48E71C6
:104420000198FFF7DCFC4FF484710198FFF7D7FC8B
:1044300000210198FFF76AFD009B00225A63009B50
:10444000002283F82F2020210198FFF7BAFC009B5F
:1044500093F82D30012B03D008210198FFF7B1FC10
:1044600000990198FFF778FE009B1B68002B0DD088
:10447000009B40F286229A60009B9B681946019837
:10448000FFF7D4FC27E0039B013B0393039B002B26
:1044900006DD00990198FFF7F0FE0346002BF2D1EC
:1044A000009B93F82F30002B0AD00198FFF7FDFCFA
:1044B0000490049B002B03D00498FFF778FD05902F
:1044C000039B002B07DC0198FFF7CDFC0198FFF759
:1044D000C1FC03230593059B184607B05DF804FB58
:1044E000A086010000B587B00190009100230593DC
:1044F0003C4B03934FF482710198FFF770FC4FF42B
:1045000092710198FFF76BFC4FF48E710198FFF7E1
:1045100066FC4FF484710198FFF761FC009B002258
:104520005A63009B002283F82F20009B9B6A012B7B
:104530000AD1009B1B6A03F04003002B04D1022127
:104540000198FFF7E3FC03E001210198FFF7DEFC8F
:1045500020210198FFF735FC009B93F82D30022BAA
:1045600003D000210198FFF72CFC009B1B68002B57
:104570000DD0009B40F286229A60009B9B681946F2
:104580000198FFF753FC27E0039B013B0393039B38
:10459000002B06DD00990198FFF76FFE0346002B04
:1045A000F2D1009B93F82F30002B0AD00198FFF72F
:1045B0007CFC0490049B002B03D00498FFF7F7FCCD
:1045C0000590039B002B07DC0198FFF74CFC01983A
:1045D000FFF740FC03230593059B184607B05DF8E1
:1045E00004FB00BFA086010030B587B003900291A4
:1045F0000192009300230593029B93F82D30012B29
:1046000005D1019B1B78012B01D108236DE0029B92
:1046100093F82D30022B05D1019B1B78012B01D083
:10462000082362E032490398FFF70AFC029B93F8E3
:104630003030DBB2002B09D0029B9B6819460398EF
:10464000FFF7F4FB11230593059B4EE0009B03F05D
:104650000403002B0CBF01230023DAB2029B83F872
:104660003020029B009A1A62029B019A03F10C040B
:1046700015460FCD0FC42B682360019B5A68029B1F
:104680009A62019BDA68029B5A62019B5B78194629
:104690000398FFF718FC019B1B78012B17D0019B97
:1046A0001B78002B04D1009B03F02003002B01D0CA
:1046B000012300E0002303F00103DAB2029B83F838
:1046C0002C2002990398FFF797FE059004E00299C9
:1046D0000398FFF707FF0590029B1B68002B03D18F
:1046E000029B002283F83020059B184607B030BD9E
:1046F0008642040000B587B0039002910192002326
:104700000593039B1B791A4613461B019B1A9B00BA
:10471000074A13440493039B1868019B029A049967
:10472000FFF762FF0590059B184607B05DF804FB94
:104730004C01002000B58BB00390019200930B4612
:104740008DF80B3000238DF814309DF80B308DF868
:104750001530009B069300230793019B08930023C9
:1047600009939DF83030002B01D0202200E0002278
:1047700005AB19460398FFF7BDFF034618460BB07B
:104780005DF804FB00B58BB00390019200930B46DB
:104790008DF80B3001238DF814309DF80B308DF817
:1047A0001530009B069300230793019B0893002379
:1047B000099305AB002219460398FFF79BFF0346B8
:1047C00018460BB05DF804FB30B58BB0019000913A
:1047D00000990198FFF751FD0346002B7CD1009B07
:1047E00093F82F3083F00103DBB2002B33D0009B12
:1047F0001B7B022B03D0009B1B7B032B2BD1009B2D
:104800005A6A009B9B699A4225D1009BDA69009BFA
:104810005A62009B5A69009B9A62009B1B6A03F0D4
:104820002003002B14BF01230023DAB2009B83F87E
:104830002C20009B002283F82D20009B1B7B032B48
:1048400004D100990198FFF7D7FD46E0009901983F
:10485000FFF748FE41E0009B04AC03F10C050FCDCF
:104860000FC42B682360009B93F82F30002B1ED0C1
:104870000198FFF71AFB0990099B03F00203002B34
:1048800003D001238DF80C3014E0099B03F00403DE
:10489000002B03D002238DF80C300BE0099B03F0B2
:1048A0000103002B06D003238DF80C3002E0002317
:1048B0008DF80C30009B002283F83020009B1B6A8F
:1048C00003F00403002B08D1009B1B68009A516879
:1048D00003AA1046984700E000BF0BB030BD0000AF
:1048E00008B503494FF04020FFF76EFF00BF08BD39
:1048F0004C01002082B003468DF807309DF8073048
:1049000003F01F0205499DF907305B09012000FAF9
:1049100002F241F8232000BF02B0704700E100E03E
:1049200082B0034600918DF807309DF90730002BC7
:104930000CDA009BDAB20C499DF8073003F00F0344
:10494000043B5201D2B20B441A7609E0009BDAB262
:1049500006499DF907305201D2B20B4483F8002377
:1049600000BF02B0704700BF00ED00E000E100E0D2
:1049700082B00190019B1B0B5BB2184602B07047DE
:1049800000B583B003460A468DF8073013468DF80C
:1049900006309DF806209DF9073011461846FFF7AE
:1049A000BFFF00BF03B05DF804FB00B583B0034652
:1049B0008DF807309DF907301846FFF79BFF00BFC1
:1049C00003B05DF804FB82B001900B468DF8033014
:1049D0009DF80330019A134401221A6000BF02B00F
:1049E000704784B001900B46ADF80230BDF802303C
:1049F000019A134400221A60BDF80230019A134450
:104A00001B680393039B00BF04B0704782B0019002
:104A10000B46ADF80230BDF80230019A13441B6812
:104A2000002B14BF01230023DBB2184602B07047ED
:104A300082B001900091019BD3F80022009B1A43A1
:104A4000019BC3F8002200BF02B0704782B0019002
:104A50000091019BD3F80022009BDB431A40019B8D
:104A6000C3F8002200BF02B0704782B001900091ED
:104A7000019B009AC3F8042300BF02B0704782B0C4
:104A800001900091019B009AC3F8082300BF02B077
:104A9000704782B001900091019BD3F80423009BE2
:104AA0001340002B14BF01230023DBB2184602B0D1
:104AB000704782B001900B468DF80330019BD3F80C
:104AC000043523F003029DF8033003F003031A4377
:104AD000019BC3F8042500BF02B0704782B001906B
:104AE0000B468DF80330019BD3F8083523F0030201
:104AF0009DF8033003F003031A43019BC3F8082514
:104B000000BF02B0704782B001900B468DF80330B1
:104B1000019BD3F8103523F00F029DF8033003F00A
:104B20000F031A43019BC3F8102500BF02B0704762
:104B300084B003900B4601928DF80B309DF80B204A
:104B4000039B02F5A872019943F8221000BF04B03C
:104B5000704782B00190019B9B0003F5A0739BB24C
:104B6000184602B0704782B001904FF48032019B2A
:104B700002FA03F3184602B07047000010B588B07F
:104B8000039002910192039B1B791A4613465B0026
:104B900013449B00314A13440593059B1B7A002B59
:104BA00003D008230693069B55E0059B019A1A60E3
:104BB000029B5A68059B5A6000238DF81F3010E055
:104BC000039B1C689DF81F301846FFF7C2FF034681
:104BD00019462046FFF705FF9DF81F3001338DF879
:104BE0001F30039B5B799DF81F209A42E8D3039BFB
:104BF0001B681846FFF7BCFE03461A46029BDB788B
:104C000019461046FFF7BCFE039B1B681846FFF7CA
:104C1000AFFE03461846FFF7C8FE039B1A68029BC7
:104C20005B7819461046FFF744FF039B1A68029B06
:104C30009B7819461046FFF751FF039B1A68029BA9
:104C40001B7819461046FFF75EFF059B01221A727A
:104C500000230693069B184608B010BD880100206B
:104C600000B583B00190019B1B6800211846FFF737
:104C7000AAFE019B1B791946064A0B465B000B44B2
:104C80009B001344083302221A7000BF03B05DF882
:104C900004FB00BF8801002000B583B00190019B98
:104CA0001B6810211846FFF78EFE019B1B791946E1
:104CB000064A0B465B000B449B0013440833012259
:104CC0001A7000BF03B05DF804FB00BF880100202C
:104CD00010B586B0039001921A460B468DF80B3042
:104CE00013468DF80A309DF80B301846FFF73BFF4E
:104CF00005909DF80A30002B12D0039B1C689DF88C
:104D00000B301846FFF725FF034619462046FFF7EC
:104D100068FE039B1B6805991846FFF7A6FE05E091
:104D2000039B1B6805991846FFF7A9FE039B1B68A8
:104D30009DF80B10019A1846FFF7FAFE00BF06B067
:104D400010BD00B585B0039001921A460B468DF850
:104D50000B301346ADF80830039B18689DF80B30F4
:104D60004FF480729A409DF80B30012101FA03F351
:104D700013431946FFF76AFE039B1B68BDF8082022
:104D800011461846FFF754FE9DF818309DF80B1099
:104D9000019A0398FFF79CFF00BF05B05DF804FB84
:104DA00000B587B00390029113468DF807300023B9
:104DB0008DF8173030E09DF817301846FFF7C9FE20
:104DC0000346ADF814309DF817301846FFF7CBFEB8
:104DD0000490BDF8143019460398FFF717FE0346F8
:104DE000002B14D004990398FFF753FE0346002BC1
:104DF0000DD0BDF8143019460398FFF7F2FD029B61
:104E00001B68029A5168BDF81420104698479DF817
:104E1000173001338DF817309DF817209DF80730B3
:104E20009A42C8D300BF00BF07B05DF804FB000082
:104E300008B5042202490348FFF7B2FF00BF08BDCE
:104E4000880100200080004082B0034600918DF868
:104E500007309DF90730002B0CDA009BDAB20C49C1
:104E60009DF8073003F00F03043B5201D2B20B440C
:104E70001A7609E0009BDAB206499DF90730520123
:104E8000D2B20B4483F8002300BF02B0704700BFCA
:104E900000ED00E000E100E000B583B00190019B6F
:104EA000013BB3F1807F01D301230FE0094A019B4D
:104EB000013B536007214FF0FF30FFF7C5FF054B63
:104EC00000229A60034B07221A600023184603B0A1
:104ED0005DF804FB10E000E082B00190019B1B68CC
:104EE0001F2B02D84FF0A04306E0019B1B6803F084
:104EF0001F02019B1A60024B184602B0704700BFA8
:104F00000003005000B585B00190084611461A46CE
:104F100003468DF803300B468DF8023013468DF8AA
:104F2000013001AB1846FFF7D7FF03909DF803202F
:104F30009DF802305B001A439DF801309B001A4334
:104F40009DF818301B0242EA03019DF81C301B0437
:104F5000019A1943039B02F5E07243F8221000BF47
:104F600005B05DF804FB00B585B003900023019304
:104F7000002300930023012201210398FFF7C2FFC1
:104F800000BF05B05DF804FB00B585B003900B468B
:104F90008DF80B309DF80B30002201920022009218
:104FA000002200210398FFF7ADFF00BF05B05DF8B8
:104FB00004FB00B585B0019001AB1846FFF78CFFEC
:104FC0000390019B012202FA03F31946039800F0B3
:104FD00018F800BF05B05DF804FB00B585B001907E
:104FE00001AB1846FFF778FF0390019B012202FAFC
:104FF00003F31946039800F00EF800BF05B05DF802
:1050000004FB82B001900091019B009AC3F808252F
:1050100000BF02B0704782B001900091019B009ADE
:10502000C3F80C2500BF02B070470000224B1222CB
:10503000C3F86025204B0122C3F800251E4B012236
:10504000C3F804251C4B0022C3F80C251A4B4FF45F
:10505000C872C3F80825184B0022C3F81425164B54
:105060000222C3F81025144B144AC3F82025124B12
:105070000422C3F82425104B0122C3F828250E4B27
:105080000122C3F82C250C4B0C4AC3F840250A4BCF
:105090000422C3F84425084B0022C3F84825064BD8
:1050A0000022C3F84C25044B01229A60034B4FF4B5
:1050B000BE721A8000BF704700C001409C010020F2
:1050C00008B500F0B7F8FFF7B1FF584B0222C3F85C
:1050D000F025564B0022C3F8F425544B6FF00042E4
:1050E000C3F80823514B0022C3F804214F4BD3F8D7
:1050F00004334E4A43F00203C2F804334B4BD3F857
:1051000000354A4A43F00103C2F80035474BD3F853
:105110001835464A23F00303C2F81835434BD3F839
:105120001835424A23F03003C2F818353F4BD3F804
:1051300018353E4A23F4E063C2F818353B4BD3F8E8
:1051400018353A4A23F48053C2F81835374BD3F850
:105150001835364A23F4E023C2F81835334BD3F818
:105160001835324A43F40033C2F818352F4BD3F8C0
:1051700018352E4A23F48013C2F818352B4B002221
:10518000C3F81425294B0822C3F81025274BD3F860
:105190002835264A23F00303C2F82835234BD3F8D9
:1051A0002835224A23F03003C2F828351F4BD3F8A4
:1051B00028351E4A23F4E063C2F828351B4BD3F888
:1051C00028351A4A23F48053C2F82835174BD3F8F0
:1051D0002835164A23F4E023C2F82835134BD3F8B8
:1051E0002835124A43F40033C2F828350F4BD3F860
:1051F00028350E4A23F48013C2F828350B4B0022C1
:10520000C3F82425094B0722C3F82025074B084A79
:10521000C3F82C26054B0222C3F83026322001F0B9
:105220000EFD00F039FA02F0A9FAFEE70070004026
:105230009401002030B595B04B4B1B684B4AA2FB44
:1052400003239B091846FFF727FEFEF71FF913906B
:10525000139B1293129B002B02D01298FBF7BEF8FF
:1052600000212920FFF790FE1120FFF77CFE11207E
:10527000FFF79FFE0920FFF776FE0920FFF7ADFE3E
:105280000A20FFF770FE0A20FFF7A7FE384A0EAB90
:105290001268114619800233120C1A7000238DF81F
:1052A00039300EAB334A19460F20FEF741F91390FF
:1052B000139B1193119B002B02D01198FBF78EF8D2
:1052C00001210F20FEF7A4F90EAB2B4A194604204A
:1052D000FEF72EF91390139B1093109B002B02D016
:1052E0001098FBF77BF801210420FEF791F90020CC
:1052F000FBF76FF8214B08AC1D460FCD0FC495E8A6
:10530000030084E803001E4B00934FF48073019365
:105310001C4B02934FF480730393694608A807233C
:10532000194AFBF7A9FA1390139B0F930F9B002BBD
:1053300002D00F98FBF752F804AB00221A605A60B3
:105340009A60DA601C2304931D2305934FF0CC73FD
:10535000069302238DF81C3004AB19460B4801F06C
:105360000FFF00BF15B030BD18000020D34D6210F4
:10537000EC870000796C0000CD750000F08700001C
:10538000A4010020A4020020AD700000D48700001A
:1053900010B586B0039001921A460B468DF80B307B
:1053A0001346ADF80830039B5C68039B9868BDF812
:1053B00008309DF80B10019AA0470590059B1846F0
:1053C00006B010BD10B586B0039001921A460B4688
:1053D0008DF80B301346ADF80830039B1C68039B17
:1053E0009868BDF808309DF80B10019AA047059009
:1053F000059B184606B010BD00B585B001900B4660
:105400008DF8033002AA012320210198FFF7C0FF85
:105410000390039B002B11D19DF8033003F00F0381
:10542000DAB29DF8083062F307138DF8083002AA4B
:10543000012320210198FFF7C5FF0390039B184625
:1054400005B05DF804FB00B585B001900B468DF802
:10545000033002AA012323210198FFF799FF03904B
:10546000039B002B11D19DF8033003F00303DAB244
:105470009DF8083062F305138DF8083002AA012365
:1054800023210198FFF79EFF0390039B184605B068
:105490005DF804FB00B585B001900B468DF8033034
:1054A00002AA012323210198FFF772FF0390039BB7
:1054B000002B11D19DF8033003F00103DAB29DF8FF
:1054C000083062F3C7138DF8083002AA01232321A4
:1054D0000198FFF777FF0390039B184605B05DF82E
:1054E00004FB00B585B0019000910123009A0F21C3
:1054F0000198FFF74DFF0390039B184605B05DF838
:1055000004FB00B585B0019000910123009A302181
:105510000198FFF757FF0390039B184605B05DF80D
:1055200004FB00B585B001900B468DF8033002AA4C
:10553000012332210198FFF72BFF0390039B002BDF
:1055400011D19DF8033003F07F03DAB29DF80830E3
:1055500062F306038DF8083002AA01233221019874
:10556000FFF730FF0390039B184605B05DF804FB7E
:1055700000B585B001900B468DF8033002AA0123D7
:1055800033210198FFF704FF0390039B002B11D1F7
:105590009DF8033003F07F03DAB29DF8083062F320
:1055A00006038DF8083002AA012333210198FFF782
:1055B00009FF0390039B184605B05DF804FB00B596
:1055C00085B001900B468DF8033002AA01232121FA
:1055D0000198FFF7DDFE0390039B002B11D19DF88E
:1055E000033003F00703DAB29DF8083062F30203D8
:1055F0008DF8083002AA012321210198FFF7E2FE6D
:105600000390039B184605B05DF804FB00B585B018
:10561000019000910123009A22210198FFF7D2FE08
:105620000390039B184605B05DF804FB00B587B0F6
:10563000059003921A460B468DF813301346ADF8C9
:105640001030BDF81030DBB29DF813200093039B9F
:105650001921059801F0AEFD0023184607B05DF84A
:1056600004FB00B587B0059003921A460B468DF8EF
:1056700013301346ADF81030BDF81030DBB29DF892
:1056800013200093039B1921059801F0D9FD0023F5
:10569000184607B05DF804FB00B583B02F4B304AC5
:1056A0001A602E4B2F4A5A602C4B2F4A9A602F4972
:1056B0002A48FFF716FF2D4B1B78332B08D02B4BB6
:1056C0001B7819462A4802F085FC4FF0FF3340E072
:1056D00000212248FFF7DEFE02212048FFF78CFE62
:1056E00000211E48FFF7AFFE01211C48FFF767FFAE
:1056F00000238DF804309DF8043043F040038DF80A
:10570000043001AB19461548FFF780FF00238DF8E0
:1057100000309DF8003043F002038DF800309DF812
:10572000003043F008038DF800309DF8003043F05E
:1057300020038DF800306B4619460848FFF7E1FE5C
:1057400000210648FFF714FF08210448FFF7E9FE8F
:105750000023184603B05DF804FB00BFA40300203B
:105760002D56000063560000D4870000B0030020CF
:105770000888000000B58BB0059003930B46ADF888
:1057800012301346ADF810300023ADF82630BDF8C6
:105790001220059B13441B0C9BB203F01F03ADF8B2
:1057A0002430059B9AB2BDF8123013449BB203F02B
:1057B0007F03ADF82230BDF824301F2B04D9DD2241
:1057C00089498A48FAF704FEBDF822307F2B04D9B4
:1057D000DE2285498648FAF7FBFDBDF81030B3F5A7
:1057E000445F04D3DF2280498248FAF7F1FDBDF817
:1057F0003030B3F5004F1AD0BDF83030002B16D042
:10580000BDF8303048F20102934210D0BDF830307C
:1058100048F2020293420AD0BDF8303048F2030247
:10582000934204D0E02270497348FAF7D1FDBDF8E5
:1058300024305B021AB2BDF822309B001BB2134326
:105840001BB2ADF82030BDF83020BDF82030134336
:105850009BB21B0A9BB2DBB28DF81830BDF820302A
:105860005AB2BDF830305BB203F003035BB21343AE
:105870005BB2DBB28DF81930BDF81030002B16D1B9
:10588000BDF83030B3F5004F04D0F22256495B48E2
:10589000FAF79EFD059BDBB25B00DBB263F07E0393
:1058A000DBB28DF818300123ADF826301EE0BDF8CC
:1058B0002230002B10D1BDF83030B3F5004F03D0AB
:1058C000BDF83030002B07D19DF818308DF8183016
:1058D0000123ADF8263009E09DF8183043F040036D
:1058E000DBB28DF818300223ADF82630BDF8303029
:1058F000002B37D0002B71DBA3F50043032B6DD8B1
:1059000000238DF81F303E4B1B681B7D002B20D0E1
:10591000BDF8261006AB0022184600F0DBF903465E
:105920008DF81F30BDF810309DF81F2019460398E0
:1059300000F0D0F903468DF81F30BDF8102006A9FD
:10594000BDF826009DF81F300093039B01F0A4F8DA
:1059500046E0BDF8102006A9BDF82600039B01F023
:105960006DF83DE0BDF8102006A9BDF82600039BA8
:1059700001F07BF8224B1B681B7D022B2FD1059B6E
:10598000182B2CD0BDF8261006AB0022184600F0CC
:10599000A1F903468DF81E30BDF810309DF81E2089
:1059A0001946039800F096F903468DF81E30002141
:1059B000182000F09AF803468DF81D309DF81E203F
:1059C0009DF81D309A420AD00D4B1B685B6A002B74
:1059D00005D00B4B1B685B6A984700E0FEE700BFF1
:1059E00000BF0BB05DF804FB40880000B8880000E1
:1059F000CC880000E0880000F08800008889000062
:105A00001400002000B587B0059003930B46ADF855
:105A100012301346ADF81030BDF81020BDF812104A
:105A20004FF400430093039B0598FFF7A3FE00BFCC
:105A300007B05DF804FB00B587B0059003930B46F3
:105A4000ADF812301346ADF81030BDF81020BDF897
:105A5000121000230093039B0598FFF78BFE00BFF5
:105A600007B05DF804FB00B587B0019000910023FA
:105A700004930198009B99B203AB0422FFF7DBFF6C
:105A8000032305930AE0049B1B0203A9059A0A4419
:105A9000127813440493059B013B0593059B002B4F
:105AA000F1DA049B184607B05DF804FB00B585B039
:105AB000019000910023ADF80E300198009B99B23F
:105AC00003AB0222FFF7B7FF9DF80D309BB21B021C
:105AD0009AB29DF80C309BB21344ADF80E30BDF86D
